:100000000C9461000C947E000C947E000C947E0095
:100010000C947E000C947E000C947E000C947E0068
:100020000C947E000C947E000C947E000C947E0058
:100030000C947E000C947E000C947E000C947E0048
:100040000C94D6000C947E000C947E000C947E00E0
:100050000C947E000C947E000C947E000C947E0028
:100060000C947E000C947E00000000002400270009
:100070002A000000000023002600290000000000E4
:10008000250028002B0004040404040404040202D4
:100090000202020203030303030301020408102007
:1000A0004080010204081020010204081020000012
:1000B0000008000201000003040700000000000027
:1000C000000011241FBECFEFD8E0DEBFCDBF11E08E
:1000D000A0E0B1E0E6EBF3E002C005900D92A230A3
:1000E000B107D9F721E0A2E0B1E001C01D92AB3029
:1000F000B207E1F70E9420010C94D9010C94000092
:10010000833081F028F4813099F08230A1F0089595
:100110008730A9F08830B9F08430D1F48091800024
:100120008F7D03C0809180008F7780938000089539
:1001300084B58F7702C084B58F7D84BD089580918A
:10014000B0008F7703C08091B0008F7D8093B000A6
:1001500008951F93CF93DF93EBEBF0E09491E7EAE0
:10016000F0E0D491E3E9F0E0C491CC23D9F0182F6A
:10017000992319F0892F0E948000EC2FF0E0EE0FF8
:10018000FF1FE458FF4FA591B4918FB7F894111158
:1001900005C09C91ED2FE095E92302C0EC91ED2B79
:1001A000EC938FBFDF91CF911F9108951F920F9213
:1001B0000FB60F9211242F933F938F939F93AF937A
:1001C000BF938091070190910801A0910901B0911E
:1001D0000A013091060123E0230F2D3720F4019608
:1001E000A11DB11D05C026E8230F0296A11DB11D5A
:1001F000209306018093070190930801A0930901C1
:10020000B0930A018091020190910301A091040131
:10021000B09105010196A11DB11D8093020190933B
:100220000301A0930401B0930501BF91AF919F9189
:100230008F913F912F910F900FBE0F901F901895A7
:10024000789484B5826084BD84B5816084BD85B5B1
:10025000826085BD85B5816085BD80916E008160BD
:1002600080936E0010928100809181008260809363
:100270008100809181008160809381008091800065
:100280008160809380008091B10084608093B10090
:100290008091B00081608093B00080917A0084608A
:1002A00080937A0080917A00826080937A008091B6
:1002B0007A00816080937A0080917A0080688093D0
:1002C0007A001092C100E7EAF0E02491E3E9F0E05F
:1002D0008491882399F090E0880F991FFC01E859D8
:1002E000FF4FA591B491FC01E458FF4F8591949183
:1002F0008FB7F894EC91E22BEC938FBFCBE9D0E071
:10030000FE01249107E810E0F80184918823C9F0E8
:1003100090E0880F991FFC01E859FF4FA591B49117
:1003200084589F4FFC01459154913FB7F8949C919C
:10033000822F809598239C93FA0190818923808352
:100340003FBF9FEAE92E90E0F92E20E0C22E20E088
:10035000D22EF7018491FE01A490F801B490BB2045
:1003600001F181110E948000EB2DF0E0EE0FFF1FE4
:10037000CF018E589F4FFC01A591B4918C91A8227A
:1003800081F0A0900001B0900101A0FC10C081E0BC
:100390000E94A900FFEFAF1ABF0AB0920101A0921C
:1003A0000001C114D104A9F20E940000D2CF80E064
:0603B000EFCFF894FFCF2F
:0203B600010044
:00000001FF
