:100000000C945D000C9485000C9485000C94850084
:100010000C9485000C9485000C9485000C9485004C
:100020000C9485000C9485000C9485000C9485003C
:100030000C9485000C9485000C9485000C9485002C
:100040000C9486020C9485000C9485000C94850019
:100050000C9485000C9485000C9485000C9485000C
:100060000C9485000C94850000000008000201003B
:100070000003040700000000000000000000000072
:10008000250028002B0000000000240027002A0083
:10009000040404040404040402020202020203032E
:1000A0000303030301020408102040800102040836
:1000B0001020010204081020590311241FBECFEFA5
:1000C000D8E0DEBFCDBF11E0A0E0B1E0EAE0F7E0AC
:1000D00002C005900D92A431B107D9F721E0A4E147
:1000E000B1E001C01D92A533B207E1F710E0CDE504
:1000F000D0E004C02197FE010E947803CC35D107DF
:10010000C9F70E94D0020C9483030C94000090E085
:10011000FC01EC55FF4F2491FC01E057FF4F849107
:10012000882399F090E0880F991FFC01EA57FF4F50
:10013000A591B491FC01E458FF4F859194918FB73C
:10014000F894EC91E22BEC938FBF0895CF92DF925D
:10015000EF92FF920F931F93CF93DF936C017A017D
:100160008B01C0E0D0E0CE15DF0589F0D8016D919C
:100170008D01D601ED91FC910190F081E02DC60139
:100180000995892B11F47E0102C02196ECCFC7019D
:10019000DF91CF911F910F91FF90EF90DF90CF9063
:1001A000089590E0FC01E859FF4F3491FC01EC55B3
:1001B000FF4F2491FC01E057FF4FE491EE2309F437
:1001C0003BC0332339F1333091F038F43130A9F0AA
:1001D000323001F584B58F7D12C0373091F0383060
:1001E000A1F03430B9F4809180008F7D03C08091FC
:1001F00080008F77809380000DC084B58F7784BD99
:1002000009C08091B0008F7703C08091B0008F7DCE
:100210008093B000F0E0EE0FFF1FE458FF4FA59170
:10022000B4918FB7F894EC91611103C020952E23FF
:1002300001C02E2B2C938FBF08953FB7F894809167
:10024000190190911A01A0911B01B0911C0126B5D2
:10025000A89B05C02F3F19F00196A11DB11D3FBFFE
:10026000BA2FA92F982F8827820F911DA11DB11D8C
:10027000BC01CD0142E0660F771F881F991F4A9588
:10028000D1F70895CF93DF93EC0160E08E810E9457
:10029000D10061E08E810E94D10060E08E810E94D9
:1002A000D1008BE891E00197F1F7DF91CF910895AC
:1002B000CF92DF92EF92FF920F931F93CF93DF9332
:1002C0007C016C0187E0C80ED11CC0E0D0E0062F95
:1002D00010E0B8010C2E02C0759567950A94E2F7FC
:1002E0006170F60181916F010E94D1002196C430A6
:1002F000D10579F7C701DF91CF911F910F91FF9041
:10030000EF90DF90CF900C944201CF92DF92EF926A
:10031000FF920F931F93CF93DF93EC01F62E642F80
:100320008C810E94D1008D818F3F19F060E00E9486
:10033000D1008F850F2D10E084FF25C06E0187E06E
:10034000C80ED11CE12CF12CB8010E2C02C0759501
:1003500067950A94E2F76170F60181916F010E943E
:10036000D100FFEFEF1AFF0A88E0E816F10461F709
:10037000CE01DF91CF911F910F91FF90EF90DF9011
:10038000CF900C944201B80184E0759567958A95E9
:10039000E1F7CE010E9458016F2DCE01DF91CF9180
:1003A0001F910F91FF90EF90DF90CF900C94580128
:1003B00041E00E94850181E090E0089540E00C94C6
:1003C0008501EF92FF920F931F93CF93DF93EC0180
:1003D000623018F08F8588608F876B8B1C8A80E471
:1003E0008D8B80E18E8B80E58F8B8C810E948700C6
:1003F0008D818F3F11F00E9487008E810E948700BF
:100400007E0187E0E80EF11C00E010E08F8584FD9E
:1004100003C084E090E002C088E090E0081719076C
:1004200044F4F70181917F010E9487000F5F1F4F05
:10043000EDCF8BE39DE00197F1F760E08C810E94A6
:10044000D10060E08E810E94D1008D818F3F19F034
:1004500060E00E94D1006F8564FD1DC063E0CE01A5
:100460000E9458010BE416E4C8010197F1F763E01C
:10047000CE010E945801C8010197F1F763E0CE0157
:100480000E94580183E592E00197F1F762E0CE0106
:100490000E94580116C06062CE010E94DE018BE40A
:1004A00096E40197F1F76F856062CE010E94DE014C
:1004B00083E592E00197F1F76F856062CE010E94BB
:1004C000DE016F856062CE010E94DE0184E0888BD0
:1004D0006CE0CE010E94DE0161E0CE010E94DE01EF
:1004E0008BE39FE10197F1F782E0898B66E0CE0113
:1004F000DF91CF911F910F91FF90EF900C94DE014F
:10050000089580E090E008950E947E031F920F926C
:100510000FB60F9211242F933F938F939F93AF9316
:10052000BF938091150190911601A0911701B09190
:1005300018013091140123E0230F2D3720F4019688
:10054000A11DB11D05C026E8230F0296A11DB11DF6
:10055000209314018093150190931601A093170125
:10056000B09318018091190190911A01A0911B017B
:10057000B0911C010196A11DB11D809319019093AA
:100580001A01A0931B01B0931C01BF91AF919F91E1
:100590008F913F912F910F900FBE0F901F90189544
:1005A000789484B5826084BD84B5816084BD85B54E
:1005B000826085BD85B5816085BD80916E0081605A
:1005C00080936E0010928100809181008260809300
:1005D0008100809181008160809381008091800002
:1005E0008160809380008091B10084608093B1002D
:1005F0008091B00081608093B00080917A00846027
:1006000080937A0080917A00826080937A00809152
:100610007A00816080937A0080917A00806880936C
:100620007A001092C10062E08DE191E00E94E10148
:10063000CBE3DFE100E010E061E08DE191E00E94BA
:10064000DE01CE010197F1F746E050E06CE071E089
:100650008DE191E00E94A6000E941D014B015C010A
:1006600088EEC82E83E0D82EE12CF12C0E941D01CB
:10067000DC01CB0188199909AA09BB09883E93407E
:10068000A105B10558F021E0C21AD108E108F1082E
:1006900088EE880E83E0981EA11CB11CC114D10401
:1006A000E104F10419F70115110531F20E9400006F
:1006B000C3CFEDE1F1E01382128284E091E09183F7
:1006C00080838DE084838FEF85838CE0868387E051
:1006D000878386E0808785E0818784E08287138630
:1006E000148615861686178661E0CF010C94E10109
:1006F000EE0FFF1F0590F491E02D099481E090E04A
:0A070000F8940C948303F894FFCFE3
:10070A0000000000D801A6008102800266616161D2
:04071A0072740000F5
:107E0000112484B714BE81FFF0D085E080938100F7
:107E100082E08093C00088E18093C10086E0809377
:107E2000C20080E18093C4008EE0C9D0259A86E02C
:107E300020E33CEF91E0309385002093840096BBD3
:107E4000B09BFECF1D9AA8958150A9F7CC24DD24C4
:107E500088248394B5E0AB2EA1E19A2EF3E0BF2EE7
:107E6000A2D0813461F49FD0082FAFD0023811F036
:107E7000013811F484E001C083E08DD089C08234E0
:107E800011F484E103C0853419F485E0A6D080C0E4
:107E9000853579F488D0E82EFF2485D0082F10E0AE
:107EA000102F00270E291F29000F111F8ED06801E7
:107EB0006FC0863521F484E090D080E0DECF843638
:107EC00009F040C070D06FD0082F6DD080E0C81688
:107ED00080E7D80618F4F601B7BEE895C0E0D1E017
:107EE00062D089930C17E1F7F0E0CF16F0E7DF06D8
:107EF00018F0F601B7BEE89568D007B600FCFDCFD4
:107F0000A601A0E0B1E02C9130E011968C91119780
:107F100090E0982F8827822B932B1296FA010C0160
:107F200087BEE89511244E5F5F4FF1E0A038BF0790
:107F300051F7F601A7BEE89507B600FCFDCF97BE46
:107F4000E89526C08437B1F42ED02DD0F82E2BD052
:107F50003CD0F601EF2C8F010F5F1F4F84911BD097
:107F6000EA94F801C1F70894C11CD11CFA94CF0C13
:107F7000D11C0EC0853739F428D08EE10CD085E9AC
:107F80000AD08FE07ACF813511F488E018D01DD067
:107F900080E101D065CF982F8091C00085FFFCCF94
:107FA0009093C60008958091C00087FFFCCF809118
:107FB000C00084FD01C0A8958091C6000895E0E648
:107FC000F0E098E1908380830895EDDF803219F02E
:107FD00088E0F5DFFFCF84E1DECF1F93182FE3DFCA
:107FE0001150E9F7F2DF1F91089580E0E8DFEE27F6
:047FF000FF270994CA
:027FFE00040479
:0400000300007E007B
:00000001FF
