:100000000C9461000C9473000C9473000C947300B6
:100010000C9473000C9473000C9473000C94730094
:100020000C9473000C9473000C9473000C94730084
:100030000C9473000C9473000C9473000C94730074
:100040000C9433010C9473000C9473000C947300A3
:100050000C9473000C9473000C9473000C94730054
:100060000C9473000C94730000000000240027001F
:100070002A0000000000250028002B0000000000DE
:1000800023002600290004040404040404040202DA
:100090000202020203030303030301020408102007
:1000A0004080010204081020010204081020000012
:1000B0000008000201000003040700000000000027
:1000C000000011241FBECFEFD8E0DEBFCDBF21E07E
:1000D000A0E0B1E001C01D92A930B207E1F70E9493
:1000E0007D010C94FD010C940000833081F028F414
:1000F000813099F08230A1F008958730A9F08830DE
:10010000B9F08430D1F4809180008F7D03C080915C
:1001100080008F7780938000089584B58F7702C028
:1001200084B58F7D84BD08958091B0008F7703C022
:100130008091B0008F7D8093B0000895CF93DF93BE
:10014000282F30E0F901E255FF4F8491F901E6567E
:10015000FF4FD491F901EA57FF4FC491CC2391F09E
:1001600081110E947500EC2FF0E0EE0FFF1FE458A4
:10017000FF4FA591B491EC91ED2381E090E021F443
:1001800080E002C080E090E0DF91CF9108951F935E
:10019000CF93DF93282F30E0F901E255FF4F849190
:1001A000F901E656FF4FD491F901EA57FF4FC49188
:1001B000CC23C9F0162F81110E947500EC2FF0E0BE
:1001C000EE0FFF1FEE58FF4FA591B4918FB7F89433
:1001D000111105C09C91ED2FE095E92302C0EC912F
:1001E000ED2BEC938FBFDF91CF911F910895CF93AB
:1001F000DF9390E0FC01E656FF4F2491FC01EA57A3
:10020000FF4F8491882361F190E0880F991FFC01D2
:10021000E859FF4FC591D491FC01EE58FF4FA591CD
:10022000B491611109C09FB7F89488812095822309
:100230008883EC912E230BC0623061F49FB7F89451
:100240003881822F809583238883EC912E2B2C93E9
:100250009FBF06C08FB7F894E8812E2B28838FBFED
:10026000DF91CF9108951F920F920FB60F92112434
:100270002F933F938F939F93AF93BF9380910501EB
:1002800090910601A0910701B091080130910401FD
:1002900023E0230F2D3720F40196A11DB11D05C0C9
:1002A00026E8230F0296A11DB11D2093040180931F
:1002B000050190930601A0930701B0930801809176
:1002C000000190910101A0910201B09103010196FA
:1002D000A11DB11D8093000190930101A093020123
:1002E000B0930301BF91AF919F918F913F912F9157
:1002F0000F900FBE0F901F901895789484B5826070
:1003000084BD84B5816084BD85B5826085BD85B5B9
:10031000816085BD80916E00816080936E00109237
:1003200081008091810082608093810080918100B2
:100330008160809381008091800081608093800043
:100340008091B10084608093B1008091B0008160A1
:100350008093B00080917A00846080937A008091CD
:100360007A00826080937A0080917A008160809325
:100370007A0080917A00806880937A001092C100A0
:1003800061E08DE00E94F70061E08CE00E94F700E0
:1003900061E08AE00E94F70060E083E00E94F700DD
:1003A00060E082E00E94F70000E010E082E00E943E
:1003B0009E00EC0183E00E949E00C130D10549F40B
:1003C000892B69F461E08DE00E94C70060E08CE059
:1003D0000CC0019721F4CD2B11F461E001C060E065
:1003E0008CE00E94C70060E08DE00E94C70001150C
:0E03F0001105E1F20E940000D9CFF894FFCF72
:00000001FF
