:100000000C945C000C9479000C9479000C947900A9
:100010000C9479000C9479000C9479000C9479007C
:100020000C9479000C9479000C9479000C9479006C
:100030000C9479000C9479000C9479000C9479005C
:100040000C94A0000C9479000C9479000C94790025
:100050000C9479000C9479000C9479000C9479003C
:100060000C9479000C947900000000002400270013
:100070002A0000000000250028002B0004040404CE
:100080000404040402020202020203030303030342
:10009000010204081020408001020408102001021F
:1000A00004081020000000080002010000030407FB
:1000B000000000000000000011241FBECFEFD8E0B8
:1000C000DEBFCDBF11E0A0E0B1E0E4E0F4E002C0AB
:1000D00005900D92A03AB107D9F721E0A0EAB1E06E
:1000E00001C01D92A93AB207E1F70E94EA000C9400
:1000F00000020C9400003FB7F8948091A501909104
:10010000A601A091A701B091A80126B5A89B05C0A2
:100110002F3F19F00196A11DB11D3FBFBA2FA92F86
:10012000982F8827820F911DA11DB11DBC01CD0103
:1001300042E0660F771F881F991F4A95D1F70895EF
:100140001F920F920FB60F9211242F933F938F930C
:100150009F93AF93BF938091A1019091A201A09131
:10016000A301B091A4013091A00123E0230F2D370A
:1001700020F40196A11DB11D05C026E8230F0296AB
:10018000A11DB11D2093A0018093A1019093A20114
:10019000A093A301B093A4018091A5019091A60121
:1001A000A091A701B091A8010196A11DB11D809356
:1001B000A5019093A601A093A701B093A801BF91B8
:1001C000AF919F918F913F912F910F900FBE0F9004
:1001D0001F901895CF93DF93CDB7DEB7C05AD109E2
:1001E0000FB6F894DEBF0FBECDBF789484B58260A1
:1001F00084BD84B5816084BD85B5826085BD85B5CB
:10020000816085BD80916E00816080936E00109248
:1002100081008091810082608093810080918100C3
:100220008160809381008091800081608093800054
:100230008091B10084608093B1008091B0008160B2
:100240008093B00080917A00846080937A008091DE
:100250007A00826080937A0080917A008160809336
:100260007A0080917A00806880937A001092C100B1
:1002700022E030E0F901E057FF4F4491F901E458E2
:10028000FF4F8491882399F090E0880F991FFC011B
:10029000E859FF4FA591B491FC01EE58FF4F8591AD
:1002A00094918FB7F894EC91E42BEC938FBF2F5F70
:1002B0003F4F2A303105F1F650EA352E8E010F55A9
:1002C0001F4F60E0E62E60E0F62EE0E0F1E0DE0198
:1002D0001196832D01900D928A95E1F7CE0101963A
:1002E0006C0120E030E0F901EE0FFF1FEC0DFD1D69
:1002F0005081C9010296FC01EC55FF4F6491FC014D
:10030000E057FF4F4491FC01E458FF4FE491EE2386
:1003100009F43BC0662339F1633091F038F4613061
:10032000A9F0623001F584B58F7D12C0673091F07D
:100330006830A1F06430B9F4809180008F7D03C0F3
:10034000809180008F77809380000DC084B58F7777
:1003500084BD09C08091B0008F7703C08091B00048
:100360008F7D8093B000F0E0EE0FFF1FEE58FF4F3F
:10037000A591B4918FB7F894EC91511103C04095B9
:100380004E2301C04E2B4C938FBF2F5F3F4F293020
:10039000310509F0A8CF0E947B004B015C0188EE7B
:1003A000482E83E0582E612C712C0E947B00DC01CA
:1003B000CB0188199909AA09BB09883E9340A10578
:1003C000B10558F091E0491A51086108710828EE0A
:1003D000820E23E0921EA11CB11C41145104610441
:1003E000710419F780E1C80ED11CC016D10609F0BE
:1003F00078CFE114F10409F468CF0E94000065CFC2
:04040000F894FFCF9E
:1004040000000000000000000000000001000100E6
:1004140001000000000001000100010001000100D2
:1004240000000000010000000000010000000100C5
:1004340000000000000000000100010000000100B5
:1004440001000000000001000100000000000100A4
:100454000000010000000000010000000000010095
:100464000000010000000000000000000000010086
:100474000000000000000100010001000100010073
:100484000000000000000000000000000000010067
:100494000000000000000100010000000000010055
:107E0000112484B714BE81FFF0D085E080938100F7
:107E100082E08093C00088E18093C10086E0809377
:107E2000C20080E18093C4008EE0C9D0259A86E02C
:107E300020E33CEF91E0309385002093840096BBD3
:107E4000B09BFECF1D9AA8958150A9F7CC24DD24C4
:107E500088248394B5E0AB2EA1E19A2EF3E0BF2EE7
:107E6000A2D0813461F49FD0082FAFD0023811F036
:107E7000013811F484E001C083E08DD089C08234E0
:107E800011F484E103C0853419F485E0A6D080C0E4
:107E9000853579F488D0E82EFF2485D0082F10E0AE
:107EA000102F00270E291F29000F111F8ED06801E7
:107EB0006FC0863521F484E090D080E0DECF843638
:107EC00009F040C070D06FD0082F6DD080E0C81688
:107ED00080E7D80618F4F601B7BEE895C0E0D1E017
:107EE00062D089930C17E1F7F0E0CF16F0E7DF06D8
:107EF00018F0F601B7BEE89568D007B600FCFDCFD4
:107F0000A601A0E0B1E02C9130E011968C91119780
:107F100090E0982F8827822B932B1296FA010C0160
:107F200087BEE89511244E5F5F4FF1E0A038BF0790
:107F300051F7F601A7BEE89507B600FCFDCF97BE46
:107F4000E89526C08437B1F42ED02DD0F82E2BD052
:107F50003CD0F601EF2C8F010F5F1F4F84911BD097
:107F6000EA94F801C1F70894C11CD11CFA94CF0C13
:107F7000D11C0EC0853739F428D08EE10CD085E9AC
:107F80000AD08FE07ACF813511F488E018D01DD067
:107F900080E101D065CF982F8091C00085FFFCCF94
:107FA0009093C60008958091C00087FFFCCF809118
:107FB000C00084FD01C0A8958091C6000895E0E648
:107FC000F0E098E1908380830895EDDF803219F02E
:107FD00088E0F5DFFFCF84E1DECF1F93182FE3DFCA
:107FE0001150E9F7F2DF1F91089580E0E8DFEE27F6
:047FF000FF270994CA
:027FFE00040479
:0400000300007E007B
:00000001FF
