:100000000C9462000C948A000C948A000C948A0070
:100010000C948A000C948A000C948A000C948A0038
:100020000C948A000C948A000C948A000C948A0028
:100030000C948A000C948A000C948A000C948A0018
:100040000C9433030C948A000C948A000C948A005C
:100050000C948A000C948A000C948A000C948A00F8
:100060000C948A000C948A000000000024002700F1
:100070002A0000000000250028002B0000000000DE
:1000800023002600290004040404040404040202DA
:100090000202020203030303030301020408102007
:1000A0004080010204081020010204081020000012
:1000B0000008000201000003040700000000000027
:1000C0000000420411241FBECFEFD8E0DEBFCDBF39
:1000D00011E0A0E0B1E0E0E2F9E002C005900D928D
:1000E000AC30B107D9F721E0ACE0B1E001C01D921E
:1000F000AF32B207E1F710E0C2E6D0E004C02197CA
:10010000FE010E948304C136D107C9F70E947D0316
:100110000C948E040C940000CF92DF92EF92FF9229
:100120000F931F93CF93DF936C017A018B01C0E093
:10013000D0E0CE15DF0589F0D8016D918D01D60193
:10014000ED91FC910190F081E02DC6010995892B7C
:1001500011F47E0102C02196ECCFC701DF91CF914F
:100160001F910F91FF90EF90DF90CF900895833013
:1001700081F028F4813099F08230A1F00895873021
:10018000A9F08830B9F08430D1F4809180008F7D5F
:1001900003C0809180008F7780938000089584B59C
:1001A0008F7702C084B58F7D84BD08958091B000A3
:1001B0008F7703C08091B0008F7D8093B000089549
:1001C000CF93DF93282F30E0F901E255FF4F849160
:1001D000F901E656FF4FD491F901EA57FF4FC49158
:1001E000CC2391F081110E94B700EC2FF0E0EE0FCC
:1001F000FF1FE458FF4FA591B491EC91ED2381E0EE
:1002000090E021F480E002C080E090E0DF91CF91A7
:1002100008951F93CF93DF93282F30E0F901E25523
:10022000FF4F8491F901E656FF4FD491F901EA5747
:10023000FF4FC491CC23C9F0162F81110E94B70043
:10024000EC2FF0E0EE0FFF1FEE58FF4FA591B49199
:100250008FB7F894111105C09C91ED2FE095E9231B
:1002600002C0EC91ED2BEC938FBFDF91CF911F91EA
:100270000895CF93DF9390E0FC01E656FF4F249161
:10028000FC01EA57FF4F8491882361F190E0880FC9
:10029000991FFC01E859FF4FC591D491FC01EE581C
:1002A000FF4FA591B491611109C09FB7F89488815F
:1002B000209582238883EC912E230BC0623061F459
:1002C0009FB7F8943881822F809583238883EC919F
:1002D0002E2B2C939FBF06C08FB7F894E8812E2B4E
:1002E00028838FBFDF91CF9108953FB7F894809115
:1002F000110190911201A0911301B091140126B542
:10030000A89B05C02F3F19F00196A11DB11D3FBF4D
:10031000BA2FA92F982F8827820F911DA11DB11DDB
:10032000BC01CD0142E0660F771F881F991F4A95D7
:10033000D1F70895CF93DF93EC0160E08E810E94A6
:10034000090161E08E810E94090160E08E810E94B6
:1003500009018BE891E00197F1F7DF91CF910895C2
:10036000CF92DF92EF92FF920F931F93CF93DF9381
:100370007C016C0187E0C80ED11CC0E0D0E0062FE4
:1003800010E0B8010C2E02C0759567950A94E2F74B
:100390006170F60181916F010E9409012196C430BC
:1003A000D10579F7C701DF91CF911F910F91FF9090
:1003B000EF90DF90CF900C949A01CF92DF92EF9262
:1003C000FF920F931F93CF93DF93EC01F62E642FD0
:1003D0008C810E9409018D818F3F19F060E00E949D
:1003E00009018F850F2D10E084FF25C06E0187E085
:1003F000C80ED11CE12CF12CB8010E2C02C0759551
:1004000067950A94E2F76170F60181916F010E948D
:100410000901FFEFEF1AFF0A88E0E816F10461F71F
:10042000CE01DF91CF911F910F91FF90EF90DF9060
:10043000CF900C949A01B80184E0759567958A95E0
:10044000E1F7CE010E94B0016F2DCE01DF91CF9177
:100450001F910F91FF90EF90DF90CF900C94B0011F
:1004600041E00E94DD0181E090E0089540E00C94BD
:10047000DD01EF92FF920F931F93CF93DF93EC0177
:10048000623018F08F8588608F876B8B1C8A80E4C0
:100490008D8B80E18E8B80E58F8B61E08C810E945B
:1004A00039018D818F3F19F061E00E94390161E0CF
:1004B0008E810E9439017E0187E0E80EF11C00E088
:1004C00010E08F8584FD03C084E090E002C088E0E6
:1004D00090E0081719074CF461E0F70181917F0162
:1004E0000E9439010F5F1F4FECCF8BE39DE0019716
:1004F000F1F760E08C810E94090160E08E810E942A
:1005000009018D818F3F19F060E00E9409016F851C
:1005100064FD1DC063E0CE010E94B0010BE416E44F
:10052000C8010197F1F763E0CE010E94B001C80154
:100530000197F1F763E0CE010E94B00183E592E0FC
:100540000197F1F762E0CE010E94B00116C060622F
:10055000CE010E9436028BE496E40197F1F76F8595
:100560006062CE010E94360283E592E00197F1F7C6
:100570006F856062CE010E9436026F856062CE0197
:100580000E94360284E0888B6CE0CE010E94360225
:1005900061E0CE010E9436028BE39FE10197F1F703
:1005A00082E0898B66E0CE01DF91CF911F910F91A0
:1005B000FF90EF900C943602089580E090E008954B
:1005C0008F929F92AF92BF920F931F93CF93DF931F
:1005D000CDB7DEB7A1970FB6F894DEBF0FBECDBF83
:1005E00019A2423008F44AE08E010F5D1F4F842E9D
:1005F000912CA12CB12CA50194010E946104E62F3D
:10060000B901CA0101501109EA3014F4E05D01C0DA
:10061000E95CD801EC93232B242B252B61F70115E2
:10062000110571F0F80101900020E9F73197AF0151
:10063000401B510BB80187E191E00E948C0002C081
:1006400080E090E0A1960FB6F894DEBF0FBECDBF5C
:10065000DF91CF911F910F91BF90AF909F908F909E
:1006600008950E9489041F920F920FB60F921124D1
:100670002F933F938F939F93AF93BF9380910D01DF
:1006800090910E01A0910F01B091100130910C01D9
:1006900023E0230F2D3720F40196A11DB11D05C0C5
:1006A00026E8230F0296A11DB11D20930C01809313
:1006B0000D0190930E01A0930F01B0931001809152
:1006C000110190911201A0911301B09114010196B2
:1006D000A11DB11D8093110190931201A0931301EC
:1006E000B0931401BF91AF919F918F913F912F9142
:1006F0000F900FBE0F901F901895789484B582606C
:1007000084BD84B5816084BD85B5826085BD85B5B5
:10071000816085BD80916E00816080936E00109233
:1007200081008091810082608093810080918100AE
:10073000816080938100809180008160809380003F
:100740008091B10084608093B1008091B00081609D
:100750008093B00080917A00846080937A008091C9
:100760007A00826080937A0080917A008160809321
:100770007A0080917A00806880937A001092C1009C
:1007800062E087E191E00E94390260E085E00E942A
:10079000390160E084E00E943901CBE3DFE100E051
:1007A00010E061E087E191E00E943602CE010197FE
:1007B000F1F785E00E94E0007C0184E00E94E00007
:1007C0002091150130911601EA94EF2819F42F5F5A
:1007D0003F4F04C0019731F4215031093093160185
:1007E00020931501C0901501D09016010D2C000C1E
:1007F000EE08FF08F7FE14C0E0911701F091180110
:100800000190F081E02D6DE287E191E00995662786
:100810007727CB016C197D098E099F094AE003C037
:100820004AE0C701B6010E94E0020E9475014B0137
:100830005C0188ECC82ED12CE12CF12C0E947501B2
:10084000DC01CB0188199909AA09BB09883E9340AC
:10085000A105B10558F081E0C81AD108E108F108F6
:1008600028EE820E23E0921EA11CB11CC114D104FB
:10087000E104F10419F70115110509F492CF0E9462
:1008800000008FCFE7E1F1E01382128284E091E073
:100890009183808389E084838FEF858388E08683DA
:1008A0008DE087838CE080878BE081878AE0828778
:1008B0001386148615861686178661E0CF010C9480
:1008C0003902A1E21A2EAA1BBB1BFD010DC0AA1FF3
:1008D000BB1FEE1FFF1FA217B307E407F50720F0A9
:1008E000A21BB30BE40BF50B661F771F881F991F24
:1008F0001A9469F760957095809590959B01AC016D
:10090000BD01CF010895EE0FFF1F0590F491E02D7A
:10091000099481E090E0F8940C948E04F894FFCF51
:0C0920000000000030028C00DD02DC0250
:00000001FF
